:020000040800F2
:10000000E00C00209D010008EB0F0008E70F00083E
:10001000E90F0008710D0008651A000800000000D3
:10002000000000000000000000000000C1110008F6
:10003000050F00080000000051100008DD12000844
:10004000C1010008C1010008C1010008C101000888
:10005000C1010008C1010008C1010008C101000878
:10006000C1010008C1010008C1010008C101000868
:10007000C1010008C1010008C1010008C101000858
:10008000C1010008C1010008C1010008C101000848
:10009000C1010008C1010008C1010008C101000838
:1000A000C1010008C1010008C1010008C101000828
:1000B000C101000831130008C1010008C101000896
:1000C000C1010008C1010008C1010008C101000808
:1000D000C1010008C1010008151800088D180008AA
:1000E000C1010008C1010008C1010008C1010008E8
:1000F000C1010008C1010008C1010008C1010008D8
:10010000C1010008C1010008C1010008C1010008C7
:10011000C1010008C1010008C1010008C1010008B7
:10012000C1010008C1010008C1010008C1010008A7
:10013000C1010008C1010008C1010008C101000897
:10014000C1010008C1010008C1010008C101000887
:10015000C1010008C1010008C1010008C101000877
:10016000C1010008C1010008C1010008C101000867
:10017000C1010008C1010008C1010008C101000857
:10018000C1010008C1010008DFF80CD000F078F9C7
:1001900000480047C11D0008E00C00200948016824
:1001A00041F4700101600848804708480047FEE7B5
:1001B000FEE7FEE7FEE7FEE7FEE7FEE7FEE7FEE717
:1001C000FEE7000088ED00E0E11200088901000868
:1001D00030B505462A460B4612F8010B13F8014BC1
:1001E00008B1A042F8D01CB1002802D06D1CF1E784
:1001F000284630BD421C10F8011B0029FBD1801A93
:10020000704730B505460020034600E05B1C934272
:1002100005D2EC5CC85C201A01D1002CF6D130BDAF
:100220002DE9FE4F81EA030404F0004421F000416F
:1002300000944FF0000B23F0004350EA01045ED01D
:1002400052EA03045BD0C3F30A54C1F30A552C44A9
:10025000A4F2F3340194A0FB0254C1F3130141F45E
:100260008011C3F3130343F4801301FB024400FB2A
:10027000034E840A970A44EA815447EA8357A4FB51
:10028000076802958D0A05FB07854FEA932C04FB4E
:100290000C542705029D4FEA065847EA1637B5EB7E
:1002A00008056EEB070C870E920E47EA811742EAAB
:1002B0008312A7FB0201B6EB0B0164EB00042B0DCC
:1002C00043EA0C335E1844EB1C50DA465146E7FB18
:1002D0000201C5F313044FEA0B3343EA14534FEA08
:1002E0000432019C43EA0603A4F10C040294009C2E
:1002F000CDE900B400F075F803B0BDE8F08F002040
:100300000146F9E70EB540F2334102910021CDE9F3
:1003100000110A460B4600F064F803B000BD01F07E
:10032000004330B421F0004150EA010206D00A0D2A
:10033000A2F56072C1F31301002A02DC30BC002078
:100340007047440F44EAC104C100E01830BC00EB20
:10035000C250AFF300800029A8BF7047401C49007D
:1003600008BF20F00100704710B4B0FA80FC00FA1A
:100370000CF050EA010404BF10BC704749B1CCF145
:10038000200421FA04F411FA0CF118BF01212143D1
:100390000843A3EB0C01CB1D4FEA00614FEA10208C
:1003A00042BF002010BC704700EBC350104400292E
:1003B000A4BF10BC7047401C490008BF20F00100DA
:1003C00010BC704710B5141E73F1000408DA401C0D
:1003D00041F1000192185B411A4301D120F0010064
:1003E00010BD2DE9F04D92469B4611B1B1FA81F254
:1003F00002E0B0FA80F22032904600F053F8044652
:100400000F4640EA0A0041EA0B0153465A460843A8
:1004100013D0114653EA010019D0C8F140025046EA
:1004200000F04FF805460E4650465946424600F049
:1004300039F8084305D0012004E020463946BDE8DC
:10044000F08D0020054346EAE0762C4337430A98B6
:100450006305E40AA0EB08000022FD0A44EA4754C1
:100460000A3002D500200146E9E70105101969416B
:10047000DDE9084500196941BDE8F04DA2E700003B
:10048000064C074D06E0E06840F0010394E80700E1
:1004900098471034AC42F6D3FFF77AFE2C210008BF
:1004A0004C210008202A04DB203A00FA02F1002047
:1004B00070479140C2F1200320FA03F319439040A2
:1004C0007047202A04DB203A21FA02F0002170470D
:1004D00021FA02F3D040C2F12002914008431946AC
:1004E00070470029816802D041F0010101E021F04C
:1004F0000101816070470000084B10B5D3F8042358
:1005000007490A40D0E900142143D0E902400443DE
:1005100021431143C3F8041310BD00000020014023
:10052000E030FCFF0029816802D041F4807101E0D5
:1005300021F48071816070470029816802D041F404
:10054000007101E021F400718160704730B54268AC
:100550000F4B0C791A400B6842EA042213434360A4
:1005600082680C4B4D791A40D1E9034323438C68D0
:1005700044EA4504234313438360C26A097D22F49D
:100580007002491EC9B242EA0151C16230BD000089
:10059000FFFEFFFCFDF7FFC02DE9F047FF4E0024F2
:1005A0002DED108B308880469FEDFDEBFE49A6F1C6
:1005B00048050A280F6809D83846FFF7A3FE53EC10
:1005C0001E2BFFF72DFEFFF7AAFEA863A8F10B0074
:1005D0009FEDF6AB092809D83846FFF793FE53EC98
:1005E0001A2BFFF71DFEFFF79AFEA863A8F115006E
:1005F0009FEDF09B092809D83846FFF783FE53EC9E
:10060000192BFFF70DFEFFF78AFEA863A8F11F0064
:100610009FEDEA8B092809D83846FFF773FE53ECA3
:10062000182BFFF7FDFDFFF77AFEA863A8F129005C
:100630009FEDE4FB092809D83846FFF763FE53EC29
:100640001F2BFFF7EDFDFFF76AFEA863A8F133004B
:100650009FEDDEBB092809D83846FFF753FE53EC5F
:100660001B2BFFF7DDFDFFF75AFEA863A8F13D0045
:100670009FEDD8CB092809D83846FFF743FE53EC45
:100680001C2BFFF7CDFDFFF74AFEA863A8F147003A
:100690009FEDD2DB092809D83846FFF733FE53EC2B
:1006A0001D2BFFF7BDFDFFF73AFEA863A8F151002F
:1006B00009280BD83846FFF725FE9FEDCA1B53ECDF
:1006C000112BFFF7ADFDFFF72AFEA863A8F15B0031
:1006D00009280BD83846FFF715FE9FEDC41B53ECD5
:1006E000112BFFF79DFDFFF71AFEA863AE48778830
:1006F00040680A2F814608D8FFF704FE53EC1E2BF2
:10070000FFF78EFDFFF70BFEE863A7F10B0009284A
:1007100009D84846FFF7F6FD53EC1A2BFFF780FD8A
:10072000FFF7FDFDE863A7F11500092809D8484641
:10073000FFF7E8FD53EC192BFFF772FDFFF7EFFD14
:10074000E863A7F11F00092809D84846FFF7DAFD3A
:1007500053EC182BFFF764FDFFF7E1FDE863A7F109
:100760002900092809D84846FFF7CCFD53EC1F2B78
:10077000FFF756FDFFF7D3FDE863A7F13300092823
:1007800009D84846FFF7BEFD53EC1B2BFFF748FD89
:10079000FFF7C5FDE863A7F13D00092809D84846E1
:1007A000FFF7B0FD53EC1C2BFFF73AFDFFF7B7FD49
:1007B000E863A7F14700092809D84846FFF7A2FDDA
:1007C00053EC1D2BFFF72CFDFFF7A9FDE863A7F104
:1007D000510009280BD84846FFF794FD9FED811B77
:1007E00053EC112BFFF71CFDFFF799FDE863A7F110
:1007F0005B0009280BD84846FFF784FD9FED7B1B63
:1008000053EC112BFFF70CFDFFF789FDE8636648F9
:10081000B68880680A2E814608D8FFF773FD53EC2E
:100820001E2BFFF7FDFCFFF77AFD2864A6F10B00F5
:10083000092809D84846FFF765FD53EC1A2BFFF746
:10084000EFFCFFF76CFD2864A6F11500092809D814
:100850004846FFF757FD53EC192BFFF7E1FCFFF774
:100860005EFD2864A6F11F00092809D84846FFF755
:1008700049FD53EC182BFFF7D3FCFFF750FD28641C
:10088000A6F12900092809D84846FFF73BFD53EC9B
:100890001F2BFFF7C5FCFFF742FD2864A6F13300CC
:1008A000092809D84846FFF72DFD53EC1B2BFFF70D
:1008B000B7FCFFF734FD2864A6F13D00092809D8EC
:1008C0004846FFF71FFD53EC1C2BFFF7A9FCFFF771
:1008D00026FD2864A6F14700092809D84846FFF7F5
:1008E00011FD53EC1D2BFFF79BFCFFF718FD28644F
:1008F000A6F1510009280BD84846FFF703FD9FEDEC
:10090000391B53EC112BFFF78BFCFFF708FD286414
:10091000A6F15B0009280BD84846FFF7F3FC9FEDD2
:10092000331B53EC112BFFF77BFCFFF7F8FC28641B
:1009300095ED0E0AD5ED0F0AB8F1000F30EE200A42
:10094000D5ED100A30EE200A85ED110A9FED290A37
:1009500001D185ED0E0A0FB985ED0F0A0EB985EDAF
:10096000100AB8F1000F03D117B90EB985ED110ABD
:10097000D5ED0E0AB2EE040A42F2107160EE800A62
:10098000DFF81890A9F12C09FCEEE00A10EE902A8D
:10099000B2FBF1F0C3B289F800302DE0480000202E
:1009A000850A39AFE4BCBB3FC4000020CE2B09163A
:1009B000A841C63F223E572B7869CF3FF69507E9FD
:1009C00029F2D23FFFDADBDC8162D53F9B7C5FCE30
:1009D000FFDAD83FC792E64D4D3BDB3FD7EC3C8278
:1009E000FF93DE3F69B50EAE830AE03FEA031011C4
:1009F0001331E13F000000006FF41C7613FB06F397
:100A000002EB03134FF47A72B3FBF2F6F6B289F8F5
:100A100001606FF07C0716FB07F603EBC606642344
:100A2000B6FBF3F7FFB289F802706FF0180C17FBF2
:100A30000CF706EB87070A26B7FBF6F789F8037071
:100A4000D5ED0F0A09F1040A6FF41C7860EE800AF4
:100A5000FCEEE00A10EE907AB7FBF1F000F0FF0C2C
:100A60008AF800C01CFB08FC07EB0C17B7FBF2FC74
:100A70000CF0FF0C8AF801C06FF07C081CFB08FC2E
:100A800007EBCC07B7FBF3FC0CF0FF0C8AF802C0B5
:100A90006FF018081CFB08FC07EB8C07B7FBF6F798
:100AA0008AF80370D5ED100A6FF41C7860EE800AA6
:100AB000FCEEE00A10EE907AB7FBF1F000F0FF0CCC
:100AC00009F1080080F800C01CFB08FC07EB0C17BC
:100AD000B7FBF2FC0CF0FF0C80F801C06FF07C0853
:100AE0001CFB08FC07EBCC07B7FBF3FC0CF0FF0C7E
:100AF00080F802C06FF018081CFB08FC07EB8C079D
:100B0000B7FBF6F7C770D5ED110A051D6FF41C7C15
:100B100020EE800ABCEEC00A10EE107AB7FBF1F1AD
:100B2000C9B2297011FB0CF107EB0111B1FBF2F214
:100B3000D2B26A706FF07C0712FB07F201EBC201C0
:100B4000B1FBF3F2D2B2AA70434612FB03F201EBFF
:100B50008201B1FBF6F1E9704E465746315D8046A1
:100B600030313155395D30313955015D3031015504
:100B7000295D30312955641CE4B2042CEED34020A9
:100B800000F092FA0024305D00F08EFA052000F0AB
:100B9000BBF9641CE4B2042CF5D30024385D00F0EA
:100BA00083FA052000F0B0F9641CE4B2042CF5D3FC
:100BB00000244646305D00F077FA052000F0A4F9E5
:100BC000641CE4B2042CF5D30024285D00F06CFA18
:100BD000052000F099F9641CE4B2042CF5D3BDECB7
:100BE000108B2A20BDE8F04700F05EBA70B50724EC
:100BF00009290AD9C568A1F10A0606EB4606B440E0
:100C0000A543B3401D43C56007E0056901EB4106FC
:100C1000B440A543B3401D4305611F23072A09D2F1
:100C2000446B521E02EB820293409C4391400C4362
:100C3000446370BD0D2A09D2046BD21F02EB8202FD
:100C400093409C4391400C43046370BDC46A0D3AC9
:100C500002EB820293409C4391400C43C46270BDFE
:100C6000816841F08041816070470000F0B59BB021
:100C700001213A4800F038FA01218D02284600F09F
:100C80004BFA2804009036480190364802A9002407
:100C9000042681E851006800CDE9065080000890E4
:100CA000401109900AA905944002012581E831000C
:100CB0002D4F0D94694638460E9400F0F9F8012145
:100CC000384600F0EAF80F20199003208DF86800EC
:100CD0008DF86B4019A9254800F020F91594169459
:100CE000179415A81894FFF707FC0F941194139408
:100CF0001B4C8DF840504C3C8DF841508DF85060A5
:100D00000FA92046FFF722FC002301220A212046DA
:100D1000FFF76CFF002302220B212046FFF766FF3E
:100D2000002303220C212046FFF760FF002304224A
:100D30000D212046FFF75AFF01212046FFF7FCFB5B
:100D400001212046FFF7EEFB01212046FFF7C9FBFA
:100D50002046FFF785FF1BB0F0BD000004004000F7
:100D60004C2201406A00002010640240000802404A
:100D7000FEE70000F0B53F4D0021688901286FD1E2
:100D80003D4C002305F14802605C402843D16018C7
:100D9000867A2A2E3FD14678C778303E06EBC60CBD
:100DA0000CEB061607EB8607867806EB860C334EAF
:100DB00006EB4C0C67441780C3708370437007794F
:100DC00090F806C0303F07EBC70E0EEB07170CEB91
:100DD000870790F805C00CEB8C0C06EB4C0C6744B5
:100DE0005780837143710371C77990F809C0303F10
:100DF00007EBC70E0EEB07170CEB870790F808C040
:100E00000CEB8C0C06EB4C063E449680437203724E
:100E1000C37183726354491CC9B25A29B4D36B811C
:100E200014886421164B44F61F60652C01D3108092
:100E300006E044F61F656C43B4FBF1F4041B5C63ED
:100E40005488652C01D3508006E044F61F656C433E
:100E5000B4FBF1F4041B9C639488652C01D390804F
:100E6000F0BD44F61F625443B4FBF1F1401AD8635D
:100E7000F0BD000000000020E4000020F0FDFFFFB6
:100E80000000014000B50021012000F09BF9002185
:100E900002205DF804EB00F095B90029016802D04A
:100EA00041F0010101E021F0010101607047000003
:100EB00030B50368124ACC6813400A682243D1E96E
:100EC00005452C432243CC6922430C6A22434C6AD9
:100ED00022438C6A22434C6B22438C6B22431A437D
:100EE0000260426922F00703D1E90B2422431A432E
:100EF00042610A6942604A6882608968C16030BDA7
:100F00003F801CF07047000001B503480099416321
:100F1000416B0029FCD108BD00000020F0B5002382
:100F2000012403270D6804FA03F21540954242D1CB
:100F3000D0F800C05E0007FA06F52CEA050CC0F8F0
:100F400000C091F804C0D0F800E00CFA06FC4CEAAE
:100F50000E0CC0F800C091F804C0BCF1010F02D023
:100F6000BCF1020F1FD1D0F808C02CEA050CC0F864
:100F700008C091F805C0D0F808E00CFA06FC4CEA6D
:100F80000E0CC0F808C0D0F804C02CEA020CC0F85F
:100F900004C0426891F806C00CFA03FC1FFA8CFCEE
:100FA00042EA0C024260C268AA43C260CA79C568BC
:100FB000B2402A43C2605B1C102BB3D3F0BD4B0779
:100FC000DB0E9A40C90810B500EB8100016A0F24BE
:100FD0009C40A1430162016A1143016210BD41833B
:100FE000704701837047FEE7FEE7704730B50F2278
:100FF000C47801780123FCB1144C246801F1E0218C
:1010000004F4E064C4F5E064C4F30724C4F1040507
:10101000E2404478AC408578154025432A0181F8A8
:101020000024007800F01F018B404009800000F18F
:10103000E020C0F8003130BD01F01F0083404809B6
:10104000800000F1E020C0F8803130BD0CED00E000
:10105000704710B5044603E0012100F0B3F8641CAA
:10106000002C02D020780028F6D110BD0D4B10B511
:10107000186820F0020018604FF4FA74204600F05F
:10108000F2FC186840F002001860204600F0EBFC0B
:10109000186820F0020018602046BDE8104000F0FB
:1010A000E2BC0000140C024010B5064C014620467C
:1010B00000F0D4FC4021204600F038FC0028F9D094
:1010C00010BD00000048004010B5064C0146204607
:1010D00000F0C4FC4021204600F028FC0028F9D094
:1010E00010BD000000440040044A0029116801D0EE
:1010F000014300E081431160704700003038024036
:10110000044A0029116801D0014300E081431160C5
:101110007047000040380240044A0029116801D09D
:10112000014300E0814311607047000044380240F1
:1011300070B5204A1168204C11F00C0104D06610E3
:10114000042903D0082903D004601BE0066019E0DD
:101150001849091F0B68C3F380550B6803F03F0360
:1011600015B1B6FBF3F301E0B4FBF3F30C680968C7
:10117000C4F388146343C1F30141491C4900B3FB24
:10118000F1F1016011680F2303EA11110B4B5C5C54
:101190000168E14041601468072505EA94241C5D5C
:1011A00021FA04F48460126805EA52329A5CD14054
:1011B000C16070BD083802400024F400B400002073
:1011C0007047000070B5174C06460D46206820F0A9
:1011D000F3002060206806F0F001084320602068DA
:1011E000012D18D020F001002060FFF73FFF20689C
:1011F00020F0F3002060206806F00F0140EA0110A3
:1012000020602068012D09D020F001002060BDE899
:101210007040FFF72BBF40F00100E5E740F0010010
:10122000F4E70000140C02400CB50020274901909F
:1012300000900A6842F480320A604FF4A0630A68A2
:1012400002F400320092019A521C0192009A12B9E3
:10125000019A9A42F3D10A68920334D50120009092
:101260001A484030026842F0805202601848026812
:1012700042F4804202601548083002680260026849
:1012800042F400420260026842F4A0520260031F6E
:10129000104A1A600A6842F080720A600A68920175
:1012A000FCD50D4A40F205611160016821F003018F
:1012B0000160016841F0020101600168C1F3810130
:1012C0000229FAD10CBD00900CBD0000003802408C
:1012D0000070004008544007003C024000F090BA03
:1012E0000F4810B5016841F0010101600C4A00216E
:1012F0000832116002680B4B1A400260031D0A4A53
:101300001A60026822F48022026005480C300160F5
:10131000FFF78AFF05494FF00060086010BD00002C
:1013200000380240FFFFF6FE1030002408ED00E018
:101330002DE9F047DFF8C8900121484600F0C2F8D7
:1013400000285BD02F4A304B508A03F1A00403F5EC
:10135000A07503F5F07650280ED202F16A010F88CD
:1013600023F810704B8824F81030CB8825F8103003
:10137000898826F8101038E024484FF00008C0F89B
:101380000080C0F80480C0F80880C0F80C80A2F883
:101390001080118A076833F811C06744076034F879
:1013A00011C047686744476035F811C087686744D3
:1013B000876036F811C0C768491C674489B2C760A6
:1013C00011825029E5D303685021B3FBF1F3036088
:1013D0004368B3FBF1F343608368B3FBF1F3B7FBFE
:1013E000F1F1C0E90231A2F81280508A401C50820B
:1013F0004846BDE8F047012100F04CB8BDE8F08751
:1014000000040040000000205C060020C400002012
:101410007FB501210220FFF773FE1648164900240C
:101420000068164DB0FBF1F0401EADF8000040F230
:10143000E7300190ADF80840ADF802406946284613
:1014400000F0A0F901221146284600F047F80121DA
:10145000284600F022F81D208DF80C008DF80D4074
:1014600001208DF80E008DF80F0003A8FFF7BEFDD8
:101470007FBD0000A000002000B4C40400040040B0
:101480000029018802D041F0800101E021F08001B3
:1014900001807047C943018270470029018802D04A
:1014A00041F0010101E021F00101018070470029B4
:1014B00030F8441F02D041F4004101E0C1F30E01B5
:1014C0000180704702460020138A92890B4202EA8B
:1014D000010202D0002A00D001207047002A828930
:1014E00001D00A4300E08A438281704730B5028C04
:1014F00022F001020284028C8388048B22F0020213
:1015000024F073050C882C438D8915434A882A439F
:101510000C4DA84202D00C4DA8420DD122F0080576
:10152000CA8923F440732A4322F004058A882A4397
:101530000D8A1D434B8A2B43838004838968416352
:10154000028430BD0000014000040140028B22F003
:1015500008020A430283704770B5028C22F0100221
:101560000284028C8488038B0D8823F4E6464FF6B0
:10157000FF7303EA052535438E8922F0200203EA32
:10158000061616434A8803EA02123243104EB0424E
:1015900002D0104EB04215D122F08006CA8924F440
:1015A000406403EA0212324322F040068A8803EACA
:1015B000021232430E8A03EA860626434C8A03EA65
:1015C000840434438480058389688163028470BD08
:1015D0000000014000040140028B4FF6FF7322F42B
:1015E000006203EA012111430183704770B5028C48
:1015F00022F480720284028C8488838B0D8823F00D
:1016000073031D4322F400738E894FF6FF7202EAC2
:1016100006261E434B8802EA03233343104EB04292
:1016200002D0104EB04215D123F40066CB8924F4C9
:10163000405402EA0323334323F480668B8802EA92
:10164000032333430E8A02EA061626434C8A02EA33
:1016500004143443848085838968C163038470BD26
:101660000000014000040140828B22F008020A437E
:101670008283704770B501218AB00846FFF74CFDA0
:1016800001210320FFF730FD4FF4E06005900220B8
:101690008DF8180003208DF819000024334E8DF8C2
:1016A0001A4001258DF81B5005A93046FFF736FC7E
:1016B000012208213046FFF782FC01220921304631
:1016C000FFF77DFC01220A213046FFF778FC01225A
:1016D00000212748FFF773FC26482749284E006859
:1016E000B0FBF1F02549401E8880ADF81C0044F69F
:1016F00020600890ADF82440ADF81E4007A93046A0
:1017000000F040F86020ADF800000420ADF80C4077
:10171000ADF80400ADF80250ADF80E406946304611
:101720000294FFF7E3FE08213046FFF70FFF6946FA
:101730003046FFF711FF08213046FFF74DFF69469D
:101740003046FFF753FF08213046FFF78DFF012198
:101750003046FFF795FE01213046FFF79EFE01213E
:101760003046FFF7A4FE0AB070BD00000000024042
:1017700000040240A0000020809698000000002095
:101780000000014030B50288164B174C98420DD02E
:10179000A0420BD0B0F1804F08D0144DA84205D024
:1017A000134DA84202D0134DA84203D122F0700578
:1017B0004A882A43104DA84206D0104DA84203D0B3
:1017C00022F440750A892A4302804A68C2620A8864
:1017D0000285984201D0A04201D1897A0186012177
:1017E000818230BD0000014000040140000400403F
:1017F00000080040000C00400010004000140040B1
:101800000348416B002902D0416B491E4163704778
:101810000000002070B51A4C40F22555294620469C
:1018200000F08BF800B32021204600F07FF800285C
:10183000F9D0204600F00EF9124AC3B2002193708D
:101840003F2B03D0D0783F2803D006E0D37091819E
:1018500003E0402B01D10120D081B2F90C0040F20D
:101860001456B04201DB918103E007490B54401C40
:10187000908129462046BDE8704000F047B800003E
:1018800000440040000000204801002070B51C4CBE
:1018900040F225552946204600F04FF828B3202174
:1018A000204600F043F80028F9D0204600F0D2F896
:1018B000144AC0B200231070402805D001217E28B0
:1018C00005D02A2808D00BE05070D38008E0567865
:1018D000402E05D1118103E05678402E00D1518170
:1018E000B2F90610642901DBD38003E0064B58549B
:1018F000491CD18029462046BDE8704000F006B85A
:101900000048004000000020E40000200A0A0121F5
:101910009140C943018070470029818902D041F478
:10192000005101E021F400518181704702460020FE
:1019300012880A4200D00120704730B501F01F0222
:1019400001240025C1F3421304FA02F2012B0FD047
:10195000022B0FD0838A4FEA11210088134204FA28
:1019600001F400EA040001D000B10125284630BD91
:101970008389F0E7038AEEE710B5C1F3421301F063
:101980001F040121A140012B07D0022B07D01430E6
:10199000002A026805D00A4304E00C30F8E7103052
:1019A000F6E78A43026010BD7FB50446008A0D4603
:1019B00020F44051E88808432082A08941F20C615C
:1019C0008843A9882A8911436A8902431143A18166
:1019D000A08A20F44071A8890843A0826846FFF7D6
:1019E000A7FB1A48844202D01948844201D10398C7
:1019F00000E00298A189090400EBC00101EB00108E
:101A0000296801D5490000E08900B0FBF1F26420AB
:101A1000B2FBF0F109010B096FF018056B4302EB03
:101A20008302A3891D044FF0320306D503EBC202E3
:101A3000B2FBF0F000F0070005E003EB0212B2FB8E
:101A4000F0F000F00F00084320817FBD001001403E
:101A5000001401408088C0F308007047C1F30801FA
:101A600081807047FEE700210A4603E0491C3C29BB
:101A7000FCDB521C8242FADB704702E008C8121FEE
:101A800008C1002AFAD170477047002001E001C167
:101A9000121F002AFBD170472DE9F047334F3889D8
:101AA000012860D107F155013148FEF791FBDFF8BD
:101AB000C490314C4FF48058002538B14146484617
:101AC000FFF78FFA2DA000F05BFA656327492848DD
:101AD0007231FEF77DFB44F61F6638B14146484639
:101AE000FFF77DFA28A000F04BFA66631F492048F3
:101AF0005C31FEF76DFB4FF4005838B14146484663
:101B0000FFF76FFA23A000F03BFAA56317491848C6
:101B10007A31FEF75DFB38B141464846FFF75FFA80
:101B20001FA000F02DFAA663104911486331FEF79B
:101B30004FFB4FF4804838B141464846FFF751FA11
:101B40001AA000F01DFAE563084909488231FEF742
:101B50003FFB38B141464846FFF741FA16A000F076
:101B60000FFAE6633D81BDE8F08700000000002029
:101B7000E4000020000C024000000140404C4544BD
:101B8000314F4E7E00000000404C4544314F4646E8
:101B90007E000000404C4544324F4E7E0000000065
:101BA000404C4544324F46467E000000404C454480
:101BB000334F4E7E00000000404C4544334F4646B4
:101BC0007E0000002DE9F047634CE089012818D120
:101BD00004F14E016148FEF7FBFA062204F14E01C2
:101BE0006061FEF70EFB002668B15DA0FFF731FAD9
:101BF000092104F1940000F0DDF900BFFFF742F97C
:101C0000E681BDE8F087544954485531FEF7E0FAC3
:101C1000514903225531A061FEF7F3FADFF85091E4
:101C2000544D4FF4805844F61F6760B14A494B4801
:101C30007231FEF7CDFA4849042272316061FEF735
:101C4000E0FA70B11AE041464846FFF7CAF9424847
:101C50000121943000F0AEF947A000F091F96E63D5
:101C60000CE041464846FFF7BAF93B480221943060
:101C700000F0A0F943A000F083F96F6336493748BC
:101C80005C31FEF7A5FA344903225C31A061FEF70E
:101C9000B8FA4FF4005860B12F4930487A31FEF756
:101CA00097FA2D4904227A316061FEF7AAFA70B1E1
:101CB0001AE041464846FFF794F92748032194303B
:101CC00000F078F932A000F05BF9AE630CE0414619
:101CD0004846FFF784F920480421943000F06AF95F
:101CE0002EA000F04DF9AF631B491C486331FEF78D
:101CF0006FFA194903226331A061FEF782FA4FF4AB
:101D00008048D8B1144915488231FEF761FA12496A
:101D1000042282316061FEF774FA00287FF46EAF0E
:101D200041464846FFF75BF90B480621943000F026
:101D300041F91DA000F024F9EF635FE741464846F2
:101D4000FFF74FF904480521943000F033F919A04A
:101D500000F016F9EE6351E7000000204801002072
:101D600057726F6E672050617373776F72640000F3
:101D7000000C024000000140404C4544314F4E7E73
:101D800000000000404C4544314F46467E000000B4
:101D9000404C4544324F4E7E00000000404C4544CC
:101DA000324F46467E000000404C4544334F464685
:101DB0007E000000404C4544334F4E7E0000000042
:101DC00001218804FFF79CF901214804FFF798F9E5
:101DD00001210820FFF788F901210846FFF784F95F
:101DE0005F4D8020012728602F710024AC71DFF83F
:101DF00074B1EC7102266E7129465846FFF78EF8D1
:101E00004FF4407028602E71AC71EC716E712946F0
:101E10005846FFF783F8602028602E71AC71EC7192
:101E20006E7129465846FFF779F80722082158466F
:101E3000FFF7C5F8072209215846FFF7C0F8072227
:101E400005215846FFF7BBF8072206215846FFF741
:101E5000B6F8454E4FF41658DFF810A1C6F80080CA
:101E6000B480F4803481B4814FF00C09A6F80A9054
:101E700031465046FFF798FDC6F80080B480F480E4
:101E80003481DFF8EC80B481A6F80A9031464046F0
:101E9000FFF78AFD40F22559012249465046FFF7D7
:101EA0006BFDA5F15C06272030707470B470F7707C
:101EB0003046FFF79BF801215046FFF72DFD012228
:101EC00049464046FFF758FD262030707470B770C1
:101ED000F7703046FFF78AF801214046FFF71CFDF6
:101EE00001210820FFF700F94FF4704028602F719E
:101EF000AC7103206871EC7129465846FFF70EF863
:101F00001C484FF47A710068B0FBF1F0B0F1807FAB
:101F100024D220F07F414FF0E020491E4161164A53
:101F2000F02182F8141D846107210161FFF7A2FBF3
:101F3000FEF79CFEFFF76CFA104944F61F604863F9
:101F40008863C863FEF728FBFFF7A6FDFFF73AFE9C
:101F5000FEF710FFC820FEF7D7FFF3E7FEE700000B
:101F60008C000020000C0240D400002000480040FB
:101F700000440040A00000200FE000E0000001400D
:101F800010B5044603E000BFFFF78EF8641C20780C
:101F90000028F9D110BD70B50546FEF72BF9C4B283
:101FA00005E02878FFF790F8641EE4B26D1C002C61
:101FB000F7D170BD70B505460C4623A0FFF7EBFFC7
:101FC0002220FFF781F82846FFF7E5FF2220FFF7E0
:101FD0007BF80D20FFF778F840F2DC50FEF794FF15
:101FE0000A2C0BD2DFE804F005072426282A2C0A45
:101FF0000A2E18A000E01FA0FFF7CDFF224D4FF4DE
:10200000005421462846FEF7ECFF4FF47A70FEF7A5
:102010007BFF21462846FEF7E2FF1A20FFF754F81F
:102020004FF47A60FEF770FF18490020088170BDF8
:1020300017A0E1E71CA0DFE720A0DDE725A0DBE794
:1020400029A0D9E72EA0D7E741542B434D47533D54
:102050000000000048652074686F6E67206B686F31
:102060006920646F6E6720686F616E2074617421EF
:102070000A0D00007468696574206269203120646B
:1020800061206D6F210A0D00000C0240000000204D
:10209000746869657420626920312064612074610C
:1020A00074210A0D0000000074686965742062697B
:1020B0002032206461206D6F210A0D00746869650B
:1020C00074206269203220646120746174210A0DD9
:1020D0000000000074686965742062692033206420
:1020E00061206D6F210A0D00746869657420626952
:1020F000203320646120746174210A0D0000000007
:10210000536F727279212050617373776F726420FC
:1021100069732077726F6E6721206865686520217A
:102120000A0D000056484B54000000004C210008E6
:1021300000000020C40000007A1A000810220008E5
:10214000C40000201C0C00008A1A000800000000D7
:10215000000000000000000000000000000000007F
:10216000000000000000000000000000000000006F
:102170000000000000000000242100080000000012
:10218000000000000000000000000000000000004F
:10219000000000000000000000003132333435360A
:1021A000004C4544314F4E004C4544324F4E004C9C
:1021B0004544334F4E0000000000000000004C4535
:1021C00044314F4646004C4544324F4646004C454C
:1021D00044334F46460000000000000000000000AD
:1021E000303136383537393439373300007A030A1D
:1021F00000000000000000000102030406070809B7
:10220000000000000102030401020304060708099C
:040000050800018965
:00000001FF
