:020000040800F2
:10000000000D00209D010008E712000859120008A9
:10001000E5120008710D0008AD1F00080000000087
:10002000000000000000000000000000BD140008F7
:10003000B10F0008000000004D130008151600085D
:10004000C1010008C1010008C1010008C101000888
:10005000C1010008C1010008C1010008C101000878
:10006000C1010008C1010008C1010008C101000868
:10007000C1010008C1010008C1010008C101000858
:10008000C1010008C1010008C1010008C101000848
:10009000C1010008C1010008C1010008C101000838
:1000A000C1010008C1010008C1010008C101000828
:1000B000C1010008CD160008C1010008C1010008F7
:1000C000C1010008C1010008C1010008C101000808
:1000D000C1010008C10100085D1D0008D51D000810
:1000E000C1010008C1010008C1010008C1010008E8
:1000F000C1010008C101000845180008C10100083D
:10010000C1010008C10100081D180008C101000854
:10011000C1010008C1010008C1010008C1010008B7
:10012000C1010008C1010008C1010008C1010008A7
:10013000C1010008C1010008C1010008C101000897
:10014000C1010008C1010008C1010008C101000887
:10015000C1010008C1010008C1010008C101000877
:10016000C1010008C1010008C1010008C101000867
:10017000C1010008C1010008C1010008C101000857
:10018000C1010008C1010008DFF80CD000F078F9C7
:10019000004800474D230008000D00200948016871
:1001A00041F4700101600848804708480047FEE7B5
:1001B000FEE7FEE7FEE7FEE7FEE7FEE7FEE7FEE717
:1001C000FEE7000088ED00E019160008890100082C
:1001D00030B505462A460B4612F8010B13F8014BC1
:1001E00008B1A042F8D01CB1002802D06D1CF1E784
:1001F000284630BD421C10F8011B0029FBD1801A93
:10020000704730B505460020034600E05B1C934272
:1002100005D2EC5CC85C201A01D1002CF6D130BDAF
:100220002DE9FE4F81EA030404F0004421F000416F
:1002300000944FF0000B23F0004350EA01045ED01D
:1002400052EA03045BD0C3F30A54C1F30A552C44A9
:10025000A4F2F3340194A0FB0254C1F3130141F45E
:100260008011C3F3130343F4801301FB024400FB2A
:10027000034E840A970A44EA815447EA8357A4FB51
:10028000076802958D0A05FB07854FEA932C04FB4E
:100290000C542705029D4FEA065847EA1637B5EB7E
:1002A00008056EEB070C870E920E47EA811742EAAB
:1002B0008312A7FB0201B6EB0B0164EB00042B0DCC
:1002C00043EA0C335E1844EB1C50DA465146E7FB18
:1002D0000201C5F313044FEA0B3343EA14534FEA08
:1002E0000432019C43EA0603A4F10C040294009C2E
:1002F000CDE900B400F075F803B0BDE8F08F002040
:100300000146F9E70EB540F2334102910021CDE9F3
:1003100000110A460B4600F064F803B000BD01F07E
:10032000004330B421F0004150EA010206D00A0D2A
:10033000A2F56072C1F31301002A02DC30BC002078
:100340007047440F44EAC104C100E01830BC00EB20
:10035000C250AFF300800029A8BF7047401C49007D
:1003600008BF20F00100704710B4B0FA80FC00FA1A
:100370000CF050EA010404BF10BC704749B1CCF145
:10038000200421FA04F411FA0CF118BF01212143D1
:100390000843A3EB0C01CB1D4FEA00614FEA10208C
:1003A00042BF002010BC704700EBC350104400292E
:1003B000A4BF10BC7047401C490008BF20F00100DA
:1003C00010BC704710B5141E73F1000408DA401C0D
:1003D00041F1000192185B411A4301D120F0010064
:1003E00010BD2DE9F04D92469B4611B1B1FA81F254
:1003F00002E0B0FA80F22032904600F053F8044652
:100400000F4640EA0A0041EA0B0153465A460843A8
:1004100013D0114653EA010019D0C8F140025046EA
:1004200000F04FF805460E4650465946424600F049
:1004300039F8084305D0012004E020463946BDE8DC
:10044000F08D0020054346EAE0762C4337430A98B6
:100450006305E40AA0EB08000022FD0A44EA4754C1
:100460000A3002D500200146E9E70105101969416B
:10047000DDE9084500196941BDE8F04DA2E700003B
:10048000064C074D06E0E06840F0010394E80700E1
:1004900098471034AC42F6D3FFF77AFE04270008E1
:1004A00024270008202A04DB203A00FA02F1002069
:1004B00070479140C2F1200320FA03F319439040A2
:1004C0007047202A04DB203A21FA02F0002170470D
:1004D00021FA02F3D040C2F12002914008431946AC
:1004E00070470029816802D041F0010101E021F04C
:1004F0000101816070470000084B10B5D3F8042358
:1005000007490A40D0E900142143D0E902400443DE
:1005100021431143C3F8041310BD00000020014023
:10052000E030FCFF0029816802D041F4807101E0D5
:1005300021F48071816070470029816802D041F404
:10054000007101E021F400718160704730B54268AC
:100550000F4B0C791A400B6842EA042213434360A4
:1005600082680C4B4D791A40D1E9034323438C68D0
:1005700044EA4504234313438360C26A097D22F49D
:100580007002491EC9B242EA0151C16230BD000089
:10059000FFFEFFFCFDF7FFC02DE9F047FF4E0024F2
:1005A0002DED108B308880469FEDFDEBFE49A6F1C6
:1005B00058050A280F6809D83846FFF7A3FE53EC00
:1005C0001E2BFFF72DFEFFF7AAFEA864A8F10B0073
:1005D0009FEDF6AB092809D83846FFF793FE53EC98
:1005E0001A2BFFF71DFEFFF79AFEA864A8F115006D
:1005F0009FEDF09B092809D83846FFF783FE53EC9E
:10060000192BFFF70DFEFFF78AFEA864A8F11F0063
:100610009FEDEA8B092809D83846FFF773FE53ECA3
:10062000182BFFF7FDFDFFF77AFEA864A8F129005B
:100630009FEDE4FB092809D83846FFF763FE53EC29
:100640001F2BFFF7EDFDFFF76AFEA864A8F133004A
:100650009FEDDEBB092809D83846FFF753FE53EC5F
:100660001B2BFFF7DDFDFFF75AFEA864A8F13D0044
:100670009FEDD8CB092809D83846FFF743FE53EC45
:100680001C2BFFF7CDFDFFF74AFEA864A8F1470039
:100690009FEDD2DB092809D83846FFF733FE53EC2B
:1006A0001D2BFFF7BDFDFFF73AFEA864A8F151002E
:1006B00009280BD83846FFF725FE9FEDCA1B53ECDF
:1006C000112BFFF7ADFDFFF72AFEA864A8F15B0030
:1006D00009280BD83846FFF715FE9FEDC41B53ECD5
:1006E000112BFFF79DFDFFF71AFEA864AE4877882F
:1006F00040680A2F814608D8FFF704FE53EC1E2BF2
:10070000FFF78EFDFFF70BFEE864A7F10B00092849
:1007100009D84846FFF7F6FD53EC1A2BFFF780FD8A
:10072000FFF7FDFDE864A7F11500092809D8484640
:10073000FFF7E8FD53EC192BFFF772FDFFF7EFFD14
:10074000E864A7F11F00092809D84846FFF7DAFD39
:1007500053EC182BFFF764FDFFF7E1FDE864A7F108
:100760002900092809D84846FFF7CCFD53EC1F2B78
:10077000FFF756FDFFF7D3FDE864A7F13300092822
:1007800009D84846FFF7BEFD53EC1B2BFFF748FD89
:10079000FFF7C5FDE864A7F13D00092809D84846E0
:1007A000FFF7B0FD53EC1C2BFFF73AFDFFF7B7FD49
:1007B000E864A7F14700092809D84846FFF7A2FDD9
:1007C00053EC1D2BFFF72CFDFFF7A9FDE864A7F103
:1007D000510009280BD84846FFF794FD9FED811B77
:1007E00053EC112BFFF71CFDFFF799FDE864A7F10F
:1007F0005B0009280BD84846FFF784FD9FED7B1B63
:1008000053EC112BFFF70CFDFFF789FDE8646648F8
:10081000B68880680A2E814608D8FFF773FD53EC2E
:100820001E2BFFF7FDFCFFF77AFD2865A6F10B00F4
:10083000092809D84846FFF765FD53EC1A2BFFF746
:10084000EFFCFFF76CFD2865A6F11500092809D813
:100850004846FFF757FD53EC192BFFF7E1FCFFF774
:100860005EFD2865A6F11F00092809D84846FFF754
:1008700049FD53EC182BFFF7D3FCFFF750FD28651B
:10088000A6F12900092809D84846FFF73BFD53EC9B
:100890001F2BFFF7C5FCFFF742FD2865A6F13300CB
:1008A000092809D84846FFF72DFD53EC1B2BFFF70D
:1008B000B7FCFFF734FD2865A6F13D00092809D8EB
:1008C0004846FFF71FFD53EC1C2BFFF7A9FCFFF771
:1008D00026FD2865A6F14700092809D84846FFF7F4
:1008E00011FD53EC1D2BFFF79BFCFFF718FD28654E
:1008F000A6F1510009280BD84846FFF703FD9FEDEC
:10090000391B53EC112BFFF78BFCFFF708FD286513
:10091000A6F15B0009280BD84846FFF7F3FC9FEDD2
:10092000331B53EC112BFFF77BFCFFF7F8FC28651A
:1009300095ED120AD5ED130AB8F1000F30EE200A3A
:10094000D5ED140A30EE200A85ED150A9FED290A2F
:1009500001D185ED120A0FB985ED130A0EB985EDA7
:10096000140AB8F1000F03D117B90EB985ED150AB5
:10097000D5ED120AB2EE040A42F2107160EE800A5E
:10098000DFF81890A9F13009FCEEE00A10EE902A89
:10099000B2FBF1F0C3B289F800302DE0580000201E
:1009A000850A39AFE4BCBB3FE4000020CE2B09161A
:1009B000A841C63F223E572B7869CF3FF69507E9FD
:1009C00029F2D23FFFDADBDC8162D53F9B7C5FCE30
:1009D000FFDAD83FC792E64D4D3BDB3FD7EC3C8278
:1009E000FF93DE3F69B50EAE830AE03FEA031011C4
:1009F0001331E13F000000006FF41C7613FB06F397
:100A000002EB03134FF47A72B3FBF2F6F6B289F8F5
:100A100001606FF07C0716FB07F603EBC606642344
:100A2000B6FBF3F7FFB289F802706FF0180C17FBF2
:100A30000CF706EB87070A26B7FBF6F789F8037071
:100A4000D5ED130A09F1040A6FF41C7860EE800AF0
:100A5000FCEEE00A10EE907AB7FBF1F000F0FF0C2C
:100A60008AF800C01CFB08FC07EB0C17B7FBF2FC74
:100A70000CF0FF0C8AF801C06FF07C081CFB08FC2E
:100A800007EBCC07B7FBF3FC0CF0FF0C8AF802C0B5
:100A90006FF018081CFB08FC07EB8C07B7FBF6F798
:100AA0008AF80370D5ED140A6FF41C7860EE800AA2
:100AB000FCEEE00A10EE907AB7FBF1F000F0FF0CCC
:100AC00009F1080080F800C01CFB08FC07EB0C17BC
:100AD000B7FBF2FC0CF0FF0C80F801C06FF07C0853
:100AE0001CFB08FC07EBCC07B7FBF3FC0CF0FF0C7E
:100AF00080F802C06FF018081CFB08FC07EB8C079D
:100B0000B7FBF6F7C770D5ED150A051D6FF41C7C11
:100B100020EE800ABCEEC00A10EE107AB7FBF1F1AD
:100B2000C9B2297011FB0CF107EB0111B1FBF2F214
:100B3000D2B26A706FF07C0712FB07F201EBC201C0
:100B4000B1FBF3F2D2B2AA70434612FB03F201EBFF
:100B50008201B1FBF6F1E9704E465746315D8046A1
:100B600030313155395D30313955015D3031015504
:100B7000295D30312955641CE4B2042CEED34020A9
:100B800000F010FC0024305D00F00CFC052000F0AB
:100B900011FA641CE4B2042CF5D30024385D00F093
:100BA00001FC052000F006FA641CE4B2042CF5D325
:100BB00000244646305D00F0F5FB052000F0FAF910
:100BC000641CE4B2042CF5D30024285D00F0EAFB99
:100BD000052000F0EFF9641CE4B2042CF5D3BDEC61
:100BE000108B2A20BDE8F04700F0DCBB70B507246D
:100BF00009290AD9C568A1F10A0606EB4606B440E0
:100C0000A543B3401D43C56007E0056901EB4106FC
:100C1000B440A543B3401D4305611F23072A09D2F1
:100C2000446B521E02EB820293409C4391400C4362
:100C3000446370BD0D2A09D2046BD21F02EB8202FD
:100C400093409C4391400C43046370BDC46A0D3AC9
:100C500002EB820293409C4391400C43C46270BDFE
:100C6000816841F08041816070470000F0B59BB021
:100C700001213A4800F0B6FB01218D02284600F020
:100C8000C9FB2804009036480190364802A9002488
:100C9000042681E851006800CDE9065080000890E4
:100CA000401109900AA905944002012581E831000C
:100CB0002D4F0D94694638460E9400F04FF90121EE
:100CC000384600F040F90F20199003208DF8680095
:100CD0008DF86B4019A9254800F080F915941694F9
:100CE000179415A81894FFF707FC0F941194139408
:100CF0001B4C8DF840504C3C8DF841508DF85060A5
:100D00000FA92046FFF722FC002301220A212046DA
:100D1000FFF76CFF002302220B212046FFF766FF3E
:100D2000002303220C212046FFF760FF002304224A
:100D30000D212046FFF75AFF01212046FFF7FCFB5B
:100D400001212046FFF7EEFB01212046FFF7C9FBFA
:100D50002046FFF785FF1BB0F0BD000004004000F7
:100D60004C2201407A00002010640240000802403A
:100D7000FEE700002DE9F00F654B0021654AB3F94D
:100D80000C000C4644F61F6501280ED0022877D1CE
:100D900093ED0F0A604F10EE106A01035F48BE42E8
:100DA0006FDCD46394635463ADE05889012875D136
:100DB000DFF85C915A4E09F15809705C402846D121
:100DC0007018877A2A2F42D1477890F803C0303FB5
:100DD00007EBC70808EB07170CEB870C8778DFF8E1
:100DE00044A107EB87080AEB48076744A9F800709D
:100DF000C47084704470077990F806C0303F07EBE8
:100E0000C70808EB07170CEB870C477907EB870837
:100E10000AEB48076744A9F80270847144710471B1
:100E2000C77990F809C0303F07EBC70808EB0717F0
:100E30000CEB870C077A07EB87080AEB4807674437
:100E4000A9F8047044720472C47184727454491C09
:100E5000C9B25A29B1D35C81B9F80030642148463F
:100E6000652B01D3058006E044F61F646343B3FBA2
:100E7000F1F3EB1A53634388652B03D3458008E0F5
:100E80000CE016E044F61F646343B3FBF1F3EB1A86
:100E900093638388652B04D3A9F80450BDE8F00F51
:100EA000704744F61F604343B3FBF1F0281AD06348
:100EB000F4E793ED0F0A1C4E10EE104AB44208DC22
:100EC00041F63F73D36393635363BDE8F00F00F0C3
:100ED000E6B893ED0F0A154910EE104A8C4207DC74
:100EE00043F67F61D163916351634FF480410AE01F
:100EF00093ED0F0A10EE103A8B42CFDDD563956368
:100F000055634FF40041BDE8F00F00F0CAB800008F
:100F100000000020000001400000A040000C024042
:100F200004010020F0FDFFFF0000A0410000F0419F
:100F300000B50021012000F0C3FA002102205DF875
:100F400004EB00F0BDBA0029016802D041F00101B4
:100F500001E021F0010101607047000030B5036835
:100F6000124ACC6813400A682243D1E905452C4354
:100F70002243CC6922430C6A22434C6A22438C6A86
:100F800022434C6B22438C6B22431A43026042691A
:100F900022F00703D1E90B2422431A4342610A6974
:100FA00042604A6882608968C16030BD3F801CF041
:100FB0007047000001B5034800994164416C002965
:100FC000FCD108BD00000020034900220A600A6825
:100FD0008242FCD97047000024440140F0B5002350
:100FE000012403270D6804FA03F21540954242D10B
:100FF000D0F800C05E0007FA06F52CEA050CC0F830
:1010000000C091F804C0D0F800E00CFA06FC4CEAED
:101010000E0CC0F800C091F804C0BCF1010F02D062
:10102000BCF1020F1FD1D0F808C02CEA050CC0F8A3
:1010300008C091F805C0D0F808E00CFA06FC4CEAAC
:101040000E0CC0F808C0D0F804C02CEA020CC0F89E
:1010500004C0426891F806C00CFA03FC1FFA8CFC2D
:1010600042EA0C024260C268AA43C260CA79C568FB
:10107000B2402A43C2605B1C102BB3D3F0BD4B07B8
:10108000DB0E9A40C90810B500EB8100016A0F24FD
:101090009C40A1430162016A1143016210BD41837A
:1010A00070470183704700007CB50121082000F0E3
:1010B00099F947F20E00009001208DF804000024F9
:1010C0008DF8064002258DF807508DF80500694619
:1010D0000E48FFF783FF0121042000F083F9402030
:1010E00000908DF8045003208DF805008DF806401F
:1010F0008DF80740064C69462046FFF76FFF032234
:1011000006212046FFF7BBFF7CBD0000000C02401B
:10111000000802402DE9F04188B00121082000F0CC
:101120006DF9092001903C483C49002400683C4F7F
:10113000B0FBF1F0401EADF80000ADF80840ADF88E
:1011400002406946384600F0B7FD32208DF80C00A9
:101150000F258DF80D508DF80E5001268DF80F607B
:1011600003A800F0C1F801221146384600F028FC1F
:101170000121022000F04EF9A720ADF80000DFF8B1
:10118000A4804FF6FF770197ADF80840ADF8024014
:101190006946404600F090FDADF810400A20ADF8D9
:1011A0001200ADF81460ADF81640ADF8185004A95F
:1011B000404600F0AFFB0121404600F088FB0122D1
:1011C0000221404600F0FCFB2E208DF80C0003208D
:1011D0008DF80D008DF80E008DF80F6003A800F05B
:1011E00083F80121480400F015F9684600F0A2FDDB
:1011F0006320ADF80000ADF80840ADF802400A4C9D
:1012000001976946204600F057FD0121204600F075
:101210005EFB08B0BDE8F081B000002080841E00B5
:10122000000C0040000401400044014010B5084992
:101230000020084CC8600E212046FFF732FF0F2027
:10124000FFF7C2FE2046BDE810400E21FFF727BF82
:10125000D4000020000C0240FEE7000070B51E4CD8
:1012600080212046FFF71DFF4FF4FA60FFF7A2FE32
:1012700080212046FFF713FF42F21070FFF79AFE1D
:101280004FF400454FF4487629462046FFF709FF02
:1012900012A001F056F90D2000F094F83046FFF747
:1012A00089FE29462046FFF7FAFE3046FFF782FE08
:1012B00001F016FA0028E7D04FF4005529462046E1
:1012C000FFF7EFFE0021064801F04AF929462046C3
:1012D000BDE87040FFF7E3BE000C0240415400003F
:1012E000A4000020FEE7704730B50F22C4780178D3
:1012F0000123FCB1144C246801F1E02104F4E06402
:10130000C4F5E064C4F30724C4F10405E240447862
:10131000AC408578154025432A0181F800240078E7
:1013200000F01F018B404009800000F1E020C0F870
:10133000003130BD01F01F0083404809800000F1FA
:10134000E020C0F8803130BD0CED00E0704710B5F2
:10135000044603E0012100F0B3F8641C002C02D025
:1013600020780028F6D110BD0D4B10B5186820F07C
:10137000020018604FF4FA74204600F018FE186856
:1013800040F002001860204600F011FE186820F0BE
:10139000020018602046BDE8104000F008BE0000C2
:1013A000140C024010B5064C0146204600F0FAFD30
:1013B0004021204600F05EFD0028F9D010BD00005D
:1013C0000048004010B5064C0146204600F0EAFDFA
:1013D0004021204600F04EFD0028F9D010BD00004D
:1013E00000440040044A0029116801D0014300E094
:1013F000814311607047000030380240044A0029E0
:10140000116801D0014300E0814311607047000082
:1014100040380240044A0029116801D0014300E02D
:1014200081431160704700004438024070B5204A83
:101430001168204C11F00C0104D06610042903D06F
:10144000082903D004601BE0066019E01849091F51
:101450000B68C3F380550B6803F03F0315B1B6FB6F
:10146000F3F301E0B4FBF3F30C680968C4F38814E8
:101470006343C1F30141491C4900B3FBF1F1016031
:1014800011680F2303EA11110B4B5C5C0168E1400A
:1014900041601468072505EA94241C5D21FA04F4D0
:1014A0008460126805EA52329A5CD140C16070BD16
:1014B000083802400024F400C400002070470000F7
:1014C00070B5174C06460D46206820F0F3002060EA
:1014D000206806F0F001084320602068012D18D034
:1014E00020F001002060FFF73FFF206820F0F300AC
:1014F0002060206806F00F0140EA0110206020689B
:10150000012D09D020F001002060BDE87040FFF7F8
:101510002BBF40F00100E5E740F00100F4E70000D8
:10152000140C02400CB500202749019000900A6875
:1015300042F480320A604FF4A0630A6802F4003279
:101540000092019A521C0192009A12B9019A9A4291
:10155000F3D10A68920334D5012000901A48403034
:10156000026842F0805202601848026842F48042E9
:1015700002601548083002680260026842F40042C6
:101580000260026842F4A0520260031F104A1A600F
:101590000A6842F080720A600A689201FCD50D4A1E
:1015A00040F205611160016821F0030101600168EA
:1015B00041F0020101600168C1F381010229FAD101
:1015C0000CBD00900CBD00000038024000700040CF
:1015D00008544007003C024010B5FFF727FE0948B9
:1015E0008088FEF78FFE9FED081B53EC112BFEF752
:1015F00017FEFEF794FE00EE100A054880ED000A83
:1016000010BD0000D40000209CC420B07268913F3F
:101610003C00002000F098BB0F4810B5016841F075
:10162000010101600C4A00210832116002680B4B75
:101630001A400260031D0A4A1A60026822F48022DE
:10164000026005480C300160FFF76CFF05494FF060
:101650000060086010BD000000380240FFFFF6FE89
:101660001030002408ED00E070B5048C24F0010473
:101670000484058B048C4FF6FF7606EA03131343AC
:1016800025F0F3052B4324F00A020A4342F001013E
:101690000383018470BDF0B5048C24F0100404842D
:1016A000078B068C4FF6FF7404EA011527F4734785
:1016B00004EA0331394304EA02220A4326F0A00176
:1016C000294341F0100102830184F0BD2DE9F04768
:1016D000DFF8C8900121484600F010F900285BD0DF
:1016E0002F4A304B908A03F1A00403F5A07503F54F
:1016F000F07650280ED202F17A010F8823F810708C
:101700004B8824F81030CB8825F81030898826F8CB
:10171000101038E024484FF00008C0F80080C0F8EE
:101720000480C0F80880C0F80C80A2F81280518AAA
:10173000076833F811C06744076034F811C0476880
:101740006744476035F811C087686744876036F89A
:1017500011C0C768491C674489B2C76051825029CB
:10176000E5D303685021B3FBF1F303604368B3FB97
:10177000F1F343608368B3FBF1F3B7FBF1F1C0E928
:101780000231A2F81480908A401C90824846BDE83D
:10179000F047012100F098B8BDE8F0870004004050
:1017A000000000207C060020E40000207FB501211D
:1017B0000220FFF723FE1648164900240068164D44
:1017C000B0FBF1F0401EADF8000040F2E7300190B0
:1017D000ADF80840ADF802406946284600F06CFAC2
:1017E00001221146284600F0EBF80121284600F0BE
:1017F0006EF81D208DF80C008DF80D4001208DF83D
:101800000E008DF80F0003A8FFF76EFD7FBD0000EE
:10181000B000002000B4C4040004004010B5084C1F
:101820000121204600F06AF8002807D00121204657
:1018300000F04AF8BDE8104000F04ABF10BD0000BB
:10184000000C004000F00AB80029018802D041F0E5
:10185000800101E021F080010180704770B5184DD2
:101860000221284600F04AF8012827D10221284603
:1018700000F02AF8134CA06870B101281ED1284648
:1018800000F03AF8608061882288002091426188E7
:10189000228807D9891A0DE0284600F02DF820800B
:1018A00001200AE0914207D221884FF6FF72511AB7
:1018B00062881144A18000E0A080A06070BD00009B
:1018C00000040140D4000020C94301827047002970
:1018D000018802D041F0010101E021F00101018005
:1018E0007047002930F8441F02D041F4004101E064
:1018F000C1F30E0101807047406B70470246002023
:10190000138A92890B4202EA010202D0002A00D017
:10191000012070472DE9F0410D460E884988AA88BC
:101920002B89044616B3042E28D0082E268C4FF699
:10193000FF702BD026F480562684A78B268C00EAD5
:10194000022200EA013127F473473A4300EA0330E8
:10195000104326F420420A4342F48051A08321849C
:10196000E9882046BDE8F04100F09AB9FFF77CFE17
:10197000E9882046BDE8F04100F076B9FFF78BFE1C
:10198000E9882046BDE8F04100F076B926F480767B
:101990002684A78B268C00EA012100EA031010435D
:1019A00027F0F307384326F420620A4342F480719B
:1019B000A0832184E9882046BDE8F04100F068B9A1
:1019C000002A828901D00A4300E08A43828170475D
:1019D00030B5028C22F001020284028C8388048BD1
:1019E00022F0020224F073050C882C438D891543E4
:1019F0004A882A430C4DA84202D00C4DA8420DD172
:101A000022F00805CA8923F440732A4322F0040512
:101A10008A882A430D8A1D434B8A2B438380048383
:101A200089684163028430BD000001400004014028
:101A3000028B22F008020A430283704770B5028CC1
:101A400022F010020284028C8488038B0D8823F418
:101A5000E6464FF6FF7303EA052535438E8922F0EB
:101A6000200203EA061616434A8803EA02123243AA
:101A7000104EB04202D0104EB04215D122F0800676
:101A8000CA8924F4406403EA0212324322F0400679
:101A90008A8803EA021232430E8A03EA8606264344
:101AA0004C8A03EA84043443848005838968816313
:101AB000028470BD0000014000040140028B4FF61B
:101AC000FF7322F4006203EA01211143018370478E
:101AD00070B5028C22F480720284028C8488838B1D
:101AE0000D8823F073031D4322F400738E894FF693
:101AF000FF7202EA06261E434B8802EA03233343A1
:101B0000104EB04202D0104EB04215D123F4006600
:101B1000CB8924F4405402EA0323334323F4806640
:101B20008B8802EA032333430E8A02EA0616264311
:101B30004C8A02EA04143443848085838968C16333
:101B4000038470BD0000014000040140828B22F03C
:101B500008020A438283704770B501218AB00846A3
:101B6000FFF758FC01210320FFF73CFC4FF4E06035
:101B7000059002208DF8180003208DF8190000242C
:101B8000334E8DF81A4001258DF81B5005A93046BB
:101B9000FFF724FA012208213046FFF770FA0122EC
:101BA00009213046FFF76BFA01220A213046FFF780
:101BB00066FA012200212748FFF761FA26482749E3
:101BC000284E0068B0FBF1F02549401E8880ADF832
:101BD0001C0044F620600890ADF82440ADF81E408B
:101BE00007A9304600F068F86020ADF80000042036
:101BF000ADF80C40ADF80400ADF80250ADF80E4061
:101C0000694630460294FFF7E3FE08213046FFF7AD
:101C10000FFF69463046FFF711FF08213046FFF7F6
:101C20004DFF69463046FFF753FF08213046FFF766
:101C30008DFF01213046FFF707FE01213046FFF7F7
:101C400046FE01213046FFF74CFE0AB070BD000091
:101C50000000024000040240B0000020809698007E
:101C60000000002000000140028B22F00C020283E1
:101C7000028B0A4302837047028B22F44062028384
:101C8000028B4FF6FF7303EA01210A430283704778
:101C9000828B22F00C028283828B0A4382837047FC
:101CA000828B22F440628283828B4FF6FF7303EAB9
:101CB00001210A438283704730B50288164B174CC6
:101CC00098420DD0A0420BD0B0F1804F08D0144DF7
:101CD000A84205D0134DA84202D0134DA84203D10B
:101CE00022F070054A882A43104DA84206D0104DB4
:101CF000A84203D022F440750A892A4302804A6828
:101D0000C2620A880285984201D0A04201D1897A34
:101D100001860121818230BD0000014000040140A4
:101D20000004004000080040000C0040001000408B
:101D3000001400404FF0FF3141600021018001811B
:101D400041808172704700000348416C002902D035
:101D5000416C491E416470470000002070B51A4C68
:101D600040F225552946204600F08BF800B320218B
:101D7000204600F07FF80028F9D0204600F00EF948
:101D8000124AC3B2002193703F2B03D0D0783F2872
:101D900003D006E0D370D18103E0402B01D10120B4
:101DA0001082B2F90E0040F21456B04201DBD1812C
:101DB00003E007490B54401CD08129462046BDE86A
:101DC000704000F047B800000044004000000020D0
:101DD0006801002070B51C4C40F22555294620466C
:101DE00000F04FF828B32021204600F043F80028E7
:101DF000F9D0204600F0D2F8144AC0B20023107087
:101E0000402805D001217E2805D02A2808D00BE0E3
:101E10005070D38008E05678402E05D1118103E040
:101E20005678402E00D15181B2F90610642901DBA9
:101E3000D38003E0064B5854491CD18029462046E4
:101E4000BDE8704000F006B80048004000000020E7
:101E5000040100200A0A01219140C9430180704712
:101E60000029818902D041F4005101E021F40051A0
:101E7000818170470246002012880A4200D001206A
:101E8000704730B501F01F0201240025C1F3421351
:101E900004FA02F2012B0FD0022B0FD0838A4FEAF3
:101EA00011210088134204FA01F400EA040001D071
:101EB00000B10125284630BD8389F0E7038AEEE7AB
:101EC00010B5C1F3421301F01F040121A140012B01
:101ED00007D0022B07D01430002A026805D00A432D
:101EE00004E00C30F8E71030F6E78A43026010BDDA
:101EF0007FB50446008A0D4620F44051E888084327
:101F00002082A08941F20C618843A9882A89114363
:101F10006A8902431143A181A08A20F44071A889F3
:101F20000843A0826846FFF781FA1A48844202D02B
:101F30001948844201D1039800E00298A18909045C
:101F400000EBC00101EB0010296801D5490000E059
:101F50008900B0FBF1F26420B2FBF0F109010B093A
:101F60006FF018056B4302EB8302A3891D044FF049
:101F7000320306D503EBC202B2FBF0F000F007001B
:101F800005E003EB0212B2FBF0F000F00F00084393
:101F900020817FBD00100140001401408088C0F303
:101FA00008007047C1F3080181807047FEE70021F7
:101FB0000A4603E0491C3C29FCDB521C8242FADB46
:101FC000704702E008C8121F08C1002AFAD1704702
:101FD0007047002001E001C1121F002AFBD17047A9
:101FE0002DE9F047434C208901287CD104F165019B
:101FF0004148FEF7EDF8DFF804A1414D4FF4805859
:10200000002638B141465046FFF74BF83DA000F09E
:102010008DFA6E63374938488231FEF7D9F8DFF818
:10202000F09044F61F6758B141465046FFF737F825
:1020300038A000F07BFA6F6300214846FEF751FAA2
:102040002C492D486C31FEF7C3F84FF4005838B1D5
:1020500041465046FFF725F831A000F067FAAE631D
:10206000244925488A31FEF7B3F858B14146504615
:10207000FFF715F82DA000F059FAAF63002148468C
:10208000FEF72FFA1B491C487331FEF7A1F84FF4F5
:10209000804838B141465046FFF703F826A000F0CB
:1020A00045FAEE63134914489231FEF791F858B19E
:1020B00041465046FEF7F3FF22A000F037FAEF63E7
:1020C00000214846FEF70DFA0A490B482031FEF779
:1020D0007FF860B1A089401C00B2A081032801D123
:1020E0000120A08100E003E0B4F90C0060622681C9
:1020F000BDE8F0870000002004010020000C024031
:1021000000000140404C4544314F4E7E000000002D
:1021100000220140404C4544314F46467E000000BD
:10212000404C4544324F4E7E00000000404C454438
:10213000324F46467E000000404C4544334F4E7EB1
:1021400000000000404C4544334F46467E000000EE
:102150002DE9F047634C208A012818D104F15E0173
:102160006148FEF735F8062204F15E01A061FEF732
:1021700048F8002668B15DA0FFF7E9F8092104F1ED
:10218000A40000F0EDF900BFFEF7D2FE2682BDE804
:10219000F087544954486531FEF71AF85149032233
:1021A0006531E061FEF72DF8DFF85091544D4FF4A2
:1021B000805844F61F6760B14A494B488231FEF7A8
:1021C00007F8484904228231A061FEF71AF870B17D
:1021D0001AE041464846FEF764FF42480121A43018
:1021E00000F0BEF947A000F0A1F96E630CE0414693
:1021F0004846FEF754FF3B480221A43000F0B0F9F6
:1022000043A000F093F96F63364937486C31FDF70E
:10221000DFFF344903226C31E061FDF7F2FF4FF438
:10222000005860B12F4930488A31FDF7D1FF2D4960
:1022300004228A31A061FDF7E4FF70B11AE0414643
:102240004846FEF72EFF27480321A43000F088F906
:1022500032A000F06BF9AE630CE041464846FEF751
:102260001EFF20480421A43000F07AF92EA000F0CF
:102270005DF9AF631B491C487331FDF7A9FF19498C
:1022800003227331E061FDF7BCFF4FF48048D8B101
:10229000144915489231FDF79BFF124904229231EF
:1022A000A061FDF7AEFF00287FF46EAF41464846BF
:1022B000FEF7F5FE0B480621A43000F051F91DA0F1
:1022C00000F034F9EF635FE741464846FEF7E9FE68
:1022D00004480521A43000F043F919A000F026F9C4
:1022E000EE6351E7000000206801002057726F6E16
:1022F000672050617373776F72640000000C0240B6
:1023000000000140404C4544314F4E7E000000002B
:10231000404C4544314F46467E000000404C454409
:10232000324F4E7E00000000404C4544324F46463E
:102330007E000000404C4544334F46467E0000007E
:10234000404C4544334F4E7E000000006F484FF430
:102350007A7101270068B0FBF1F0B0F1807F7DD287
:1023600020F07F414FF0E020491E4161684AF02192
:1023700082F8141D00248461072101610121880471
:10238000FFF73CF801214804FFF738F80121082045
:10239000FFF728F801210846FFF724F85D4D80205B
:1023A000DFF874A128602F71AC71EC7102266E7198
:1023B00029465046FEF712FE4FF4407028602E71F9
:1023C000AC71EC716E7129465046FEF707FE602035
:1023D00028602E71AC71EC716E7129465046FEF783
:1023E000FDFD072208215046FEF749FE072209217C
:1023F0005046FEF744FE072205215046FEF73FFEF9
:10240000072206215046FEF73AFE444E4FF4165876
:10241000DFF80CB1C6F80080B480F4803481B48158
:102420004FF00C09A6F80A9031465846FFF760FDB8
:10243000C6F80080B480F4803481B481A6F80A9094
:10244000DFF8E09031464846FFF752FD40F225584C
:10245000012241465846FFF733FD00E055E0A5F163
:102460005C06272030707470B470F7703046FEF749
:102470003BFF01215846FFF7F3FC01224146484645
:10248000FFF71EFD262030707470B770F77030466D
:10249000FEF72AFF01214846FFF7E2FC0121082050
:1024A000FEF7A0FF4FF4704028602F71AC7103203D
:1024B0006871EC7129465046FEF790FDFFF74CFB22
:1024C000FEF7D4FBFFF772F9A5F19C008089022882
:1024D00005D0154944F61F6048638863C863FEF75A
:1024E000BDFE4FF480515046FEF7DBFDFEF7DCFDEC
:1024F000FEF710FEFFF770F8FEF74EF8FFF770FDDD
:10250000FFF726FEFEF736FCF4E7FEE7B0000020FA
:102510000FE000E09C000020000C0240F4000020CE
:1025200000480040004400400000014010B504464F
:1025300003E000BFFEF736FF641C20780028F9D1C5
:1025400010BD70B50546FDF755FEC4B205E028780C
:10255000FEF738FF641EE4B26D1C002CF7D170BD8D
:1025600070B505460C4623A0FFF7EBFF2220FEF7CF
:1025700029FF2846FFF7E5FF2220FEF723FF0D2065
:10258000FEF720FF40F2DC50FEF714FD0A2C0BD2C0
:10259000DFE804F005072426282A2C0A0A2E18A0B2
:1025A00000E01FA0FFF7CDFF224D4FF4005421465D
:1025B0002846FEF776FD4FF47A70FEF7FBFC2146C5
:1025C0002846FEF76CFD1A20FEF7FCFE4FF47A60F9
:1025D000FEF7F0FC18490020088170BD17A0E1E764
:1025E0001CA0DFE720A0DDE725A0DBE729A0D9E7D5
:1025F0002EA0D7E741542B434D47533D0000000028
:1026000048652074686F6E67206B686F6920646F1F
:102610006E6720686F616E20746174210A0D00007E
:1026200074686965742062692031206461206D6F6F
:10263000210A0D00000C024000000020746869654A
:1026400074206269203120646120746174210A0D54
:10265000000000007468696574206269203220649B
:1026600061206D6F210A0D007468696574206269CC
:10267000203220646120746174210A0D0000000082
:1026800074686965742062692033206461206D6F0D
:10269000210A0D0074686965742062692033206422
:1026A0006120746174210A0D00000000536F727282
:1026B00079212050617373776F726420697320777A
:1026C000726F6E6721206865686520210A0D000021
:1026D0000248C1680A31C16070470000D400002080
:1026E00010B504A10448FDF773FD002800D00120B7
:1026F00010BD00004F4B0000680100204E68694487
:102700006F616E002427000800000020E400000034
:10271000C21F000808280008E40000201C0C00006C
:10272000D21F0008000000000000000000000000B0
:102730000000000000000000000000000000000099
:102740000000000073656E00000000000000000043
:10275000000000000000000000000000FC2600084F
:102760000000000000000000000000000000000069
:102770000000000000000000000000000000000059
:102780000000313233343536004C4544314F4E0071
:102790004C4544324F4E004C4544334F4E000000F0
:1027A0000000000000004C4544314F4646004C45B7
:1027B00044324F4646004C4544334F4646000000E5
:1027C0000000000000000000303936333733393262
:1027D00032390000007A030A000000000000000007
:1027E00001020304060708090000000001020304B7
:1027F00001020304060708090000000000000000B1
:082800000000000000000000D0
:040000050800018965
:00000001FF
